:020000040800F2
:1000000000040020010100085D040008130400083A
:10001000590400087D010008AD060008000000003A
:1000200000000000000000000000000009050008BA
:100030008101000800000000E504000849060008EE
:100040001B0100081B0100081B0100081B01000820
:100050001B0100081B0100081B0100081B01000810
:100060001B0100081B0100081B0100081B01000800
:100070001B0100081B0100081B0100081B010008F0
:100080001B0100081B0100081B0100081B010008E0
:100090001B0100081B0100081B0100081B010008D0
:1000A0001B0100081B0100081B0100081B010008C0
:1000B0001B0100081B0100081B0100081B010008B0
:1000C0001B0100081B0100081B0100081B010008A0
:1000D0001B0100081B0100081B0100081B01000890
:1000E000850100081B0100081B010008DFF80CD087
:1000F00000F018F800480047A90700080004002095
:100100000648804706480047FEE7FEE7FEE7FEE7B1
:10011000FEE7FEE7FEE7FEE7FEE7FEE74D06000826
:10012000ED000008064C074D06E0E06840F00103D2
:1001300094E8070098471034AC42F6D3FFF7DAFF93
:10014000100800082008000808B50121082000F068
:10015000CBF910208DF803000420ADF80000032037
:100160008DF802006946044800F0C4F804210248F2
:1001700000F04BF908BD0000000C014000BFFEE795
:100180007047000010B54FF4805000F03DF820B1EA
:100190004FF48061184800F038F94FF4805000F0B7
:1001A0002DF84FF4005000F02FF820B14FF480618B
:1001B000114800F02CF94FF4005000F01FF84FF4F4
:1001C000804000F021F820B14FF400610A4800F0AF
:1001D0001CF94FF4804000F011F84FF4004000F09B
:1001E00013F820B14FF40061034800F010F94FF408
:1001F000004000F003F810BD000C01400149086008
:10020000704700001404014001460020034A1268B0
:100210000A400AB1012000E00020704714040140A8
:10022000002123498279002A3AD00A4612680368DD
:100230009A430B461A600A1D126803689A430B1D05
:100240001A60027911440A6803681A430A60184A5E
:100250000832126803689A43154B08331A601A1D56
:10026000126803689A43124B0C331A604279102AC1
:100270000ED11A1F126803681A430D4B08331A6017
:100280001A1D126803681A43094B0C331A600DE0FB
:100290000749427911440A6803681A430A6005E075
:1002A000027911440A6803689A430A6070470000A3
:1002B0000004014030B500228B071C0F0F2303FA06
:1002C00004F20B4B8C1053F824309343084C8D10E0
:1002D00044F8253023468C1053F824308C07240F23
:1002E00000FA04F42343024C8D1044F8253030BD4D
:1002F000080001402DE9F0410246002500260020BB
:1003000000230024002791F803C00CF00F0591F89A
:1003100003C00CF0100CBCF1000F03D091F802C028
:100320004CEA050591F800C0BCF1000F31D014680B
:1003300000202BE04FF0010C0CFA00F3B1F800C0E4
:100340000CEA03069E4220D183004FF00F0C0CFAFA
:1003500003F7BC4305FA03FC4CEA040491F803C01C
:10036000BCF1280F06D14FF0010C0CFA00FCC2F8CA
:1003700014C00AE091F803C0BCF1480F05D14FF05A
:10038000010C0CFA00FCC2F810C0401C0828D1D3A4
:100390001460B1F800C0BCF1FF0F34DD54680020D8
:1003A0002EE000F1080C4FF0010808FA0CF3B1F848
:1003B00000C00CEA03069E4221D183004FF00F0CCF
:1003C0000CFA03F7BC4305FA03FC4CEA040491F869
:1003D00003C0BCF1280F05D100F1080C08FA0CF895
:1003E000C2F8148091F803C0BCF1480F07D100F1A6
:1003F000080C4FF0010808FA0CF8C2F81080401CF5
:100400000828CED35460BDE8F08141617047016196
:10041000704700BFFEE7000008B50121082000F08A
:1004200063F810208DF803004FF44060ADF8000031
:1004300003208DF8020069460648FFF75BFF4FF482
:1004400080610448FFF7E3FF4FF400610148FFF7C4
:10045000DEFF08BD000C014000BFFEE77047000052
:1004600070B5002100230F22C47804B3154C246812
:1004700004F4E064C4F5E064210AC1F10403CA4055
:10048000447804FA03F184781440214309010E4CA6
:100490000678A155047804F01F050124AC400578C6
:1004A0006D11AD0005F1E025C5F8004109E00478C3
:1004B00004F01F050124AC40044D0678761145F880
:1004C000264070BD0CED00E000E400E080E100E0BB
:1004D00002490143024A1160704700000000FA051A
:1004E0000CED00E07047000029B1064A9269024312
:1004F000044B9A6104E0034A92698243014B9A617A
:100500007047000000100240704710B500F002F87C
:1005100010BD00000CB50020019000903348006829
:1005200040F480303149086000BF3048006800F472
:10053000003000900198401C0190009818B9019873
:10054000B0F5A06FF1D12948006800F4003010B177
:100550000120009001E0002000900098012843D184
:100560002348006840F010002149086008460068F0
:1005700020F0070008600846006840F002000860AC
:100580001A4840681949486008464068486008466B
:10059000406840F4806048600846406820F47C1061
:1005A00048600846406840F4E81048600846006823
:1005B00040F08070086000BF0C48006800F00070D8
:1005C0000028F9D00948406820F003000749486036
:1005D0000846406840F00200486000BF0348406899
:1005E00000F00C000828F9D10CBD000000100240FA
:1005F0000020024030B50146B1F1807F01D30120D7
:1006000030BD21F07F40401E4FF0E0225061501776
:100610000F22002807DA13071D0E094B00F00F0404
:10062000241F1D5503E013071C0E064B1C5400BF6E
:1006300000204FF0E0229061072010610020DFE7EA
:1006400018ED00E000E400E07047000010B513482A
:10065000006840F0010011490860084640681049F0
:1006600008400E494860084600680E4908400B499A
:1006700008600846006820F480200860084640684A
:1006800020F4FE0048604FF41F008860FFF73DFF34
:100690004FF000600449086010BD000000100240E7
:1006A0000000FFF8FFFFF6FE08ED00E000BFFEE7E8
:1006B00002E008C8121F08C1002AFAD1704770472B
:1006C000002001E001C1121F002AFBD17047000089
:1006D00070B5044600250E48FFF78CFF00BF08E008
:1006E00000BF4FF0E020006900F480300028F8D00F
:1006F0006D1C4FF47A70B4FBF0F0A842F0D84FF0C4
:10070000E020006920F001004FF0E021086170BD99
:10071000401901001FB50020039001900290009045
:1007200001210920FFF7E0FE48208DF80F004FF46B
:100730007040ADF80C0001208DF80E0003A9194897
:10074000FFF7D8FD0C210120FFF7B4FD0D2101209A
:10075000FFF7B0FD0E210120FFF7ACFD0F210120B6
:10076000FFF7A8FD4FF47040019001208DF80A00BA
:1007700000208DF808000C208DF8090001A8FFF773
:100780004FFD28208DF8000001208DF80300032084
:100790008DF8010002208DF802006846FFF760FE28
:1007A0001FBD0000000C014000BF4FF4A060FFF728
:1007B0008FFEFFF731FEFFF7C7FCFFF7ABFF21E02D
:1007C0001148FFF785FF4FF480611048FFF71DFEC9
:1007D0004FF400610D48FFF71AFE04210B48FFF7A4
:1007E00014FE0948FFF774FF4FF480610748FFF7D4
:1007F0000EFE4FF400610548FFF707FE0421034891
:10080000FFF703FEDCE7000020A10700000C014019
:10081000200800080000002000040000C0060008B6
:04000005080000ED02
:00000001FF
