:020000040800F2
:10000000000400200101000829040008DF030008A3
:10001000250400084901000811060008000000003E
:10002000000000000000000000000000C104000803
:100030004D010008000000009D040008AD05000807
:100040001B0100081B0100081B0100081B01000820
:100050001B0100081B0100081B0100081B01000810
:100060001B0100081B0100081B0100081B01000800
:100070001B0100081B0100081B0100081B010008F0
:100080001B0100081B0100081B0100081B010008E0
:100090001B0100081B0100081B0100081B010008D0
:1000A0001B0100081B0100081B0100081B010008C0
:1000B0001B0100081B0100081B0100081B010008B0
:1000C0001B0100081B0100081B0100081B010008A0
:1000D0001B0100081B0100081B0100081B01000890
:1000E000510100081B0100081B010008DFF80CD0BB
:1000F00000F018F800480047C90600080004002076
:100100000648804706480047FEE7FEE7FEE7FEE7B1
:10011000FEE7FEE7FEE7FEE7FEE7FEE7B1050008C3
:10012000ED000008064C074D06E0E06840F00103D2
:1001300094E8070098471034AC42F6D3FFF7DAFF93
:10014000D4060008E406000800BFFEE77047000080
:1001500010B54FF4805000F03DF820B14FF48061AD
:10016000184800F038F94FF4805000F02DF84FF4A3
:10017000005000F02FF820B14FF48061114800F0DA
:100180002CF94FF4005000F01FF84FF4804000F0BD
:1001900021F820B14FF400610A4800F01CF94FF437
:1001A000804000F011F84FF4004000F013F820B147
:1001B0004FF40061034800F010F94FF4004000F0E4
:1001C00003F810BD000C01400149086070470000B1
:1001D0001404014001460020034A12680A400AB193
:1001E000012000E000207047140401400021234951
:1001F0008279002A3AD00A46126803689A430B466D
:100200001A600A1D126803689A430B1D1A6002796E
:1002100011440A6803681A430A60184A08321268CF
:1002200003689A43154B08331A601A1D1268036855
:100230009A43124B0C331A604279102A0ED11A1FBE
:10024000126803681A430D4B08331A601A1D1268AE
:1002500003681A43094B0C331A600DE007494279D1
:1002600011440A6803681A430A6005E002791144E0
:100270000A6803689A430A6070470000000401405E
:1002800030B500228B071C0F0F2303FA04F20B4B2F
:100290008C1053F824309343084C8D1044F82530CB
:1002A00023468C1053F824308C07240F00FA04F4F2
:1002B0002343024C8D1044F8253030BD0800014026
:1002C0002DE9F041024600250026002000230024ED
:1002D000002791F803C00CF00F0591F803C00CF053
:1002E000100CBCF1000F03D091F802C04CEA0505D8
:1002F00091F800C0BCF1000F31D0146800202BE051
:100300004FF0010C0CFA00F3B1F800C00CEA030640
:100310009E4220D183004FF00F0C0CFA03F7BC4330
:1003200005FA03FC4CEA040491F803C0BCF1280F61
:1003300006D14FF0010C0CFA00FCC2F814C00AE020
:1003400091F803C0BCF1480F05D14FF0010C0CFA35
:1003500000FCC2F810C0401C0828D1D31460B1F8CA
:1003600000C0BCF1FF0F34DD546800202EE000F126
:10037000080C4FF0010808FA0CF3B1F800C00CEAC1
:1003800003069E4221D183004FF00F0C0CFA03F7B5
:10039000BC4305FA03FC4CEA040491F803C0BCF129
:1003A000280F05D100F1080C08FA0CF8C2F81480E7
:1003B00091F803C0BCF1480F07D100F1080C4FF0D1
:1003C000010808FA0CF8C2F81080401C0828CED3A7
:1003D0005460BDE8F081416170470161704700BF22
:1003E000FEE7000008B50121082000F059F81020B0
:1003F0008DF803004FF44060ADF8000003208DF845
:10040000020069460648FFF75BFF4FF4806104482D
:10041000FFF7E3FF4FF400610148FFF7DEFF08BD7F
:10042000000C014000BFFEE77047000070B50021DE
:1004300000230F22C47804B3154C246804F4E0644C
:10044000C4F5E064210AC1F10403CA40447804FA07
:1004500003F184781440214309010E4C0678A1551C
:10046000047804F01F050124AC4005786D11AD003F
:1004700005F1E025C5F8004109E0047804F01F0506
:100480000124AC40044D0678761145F8264070BD35
:100490000CED00E000E400E080E100E070470000C7
:1004A00029B1064A92690243044B9A6104E0034A67
:1004B00092698243014B9A6170470000001002402C
:1004C000704710B500F002F810BD00000CB5002018
:1004D000019000903348006840F480303149086052
:1004E00000BF3048006800F4003000900198401CC4
:1004F0000190009818B90198B0F5A06FF1D1294882
:10050000006800F4003010B10120009001E00020EC
:1005100000900098012843D12348006840F0100063
:10052000214908600846006820F007000860084676
:10053000006840F0020008601A48406819494860A5
:100540000846406848600846406840F4806048605B
:100550000846406820F47C1048600846406840F433
:10056000E81048600846006840F08070086000BFEE
:100570000C48006800F000700028F9D00948406875
:1005800020F00300074948600846406840F0020038
:10059000486000BF0348406800F00C000828F9D10B
:1005A0000CBD000000100240002002407047000017
:1005B00010B51348006840F0010011490860084672
:1005C0004068104908400E494860084600680E49D6
:1005D00008400B4908600846006820F48020086045
:1005E0000846406820F4FE0048604FF41F00886011
:1005F000FFF767FF4FF000600449086010BD00007E
:10060000001002400000FFF8FFFFF6FE08ED00E0DA
:1006100000BFFEE702E008C8121F08C1002AFAD195
:1006200070477047002001E001C1121F002AFBD172
:10063000704700001FB500200390019002900090C9
:1006400001210920FFF72CFF48208DF80F004FF4FF
:100650007040ADF80C0001208DF80E0003A9194878
:10066000FFF72EFE0C210120FFF70AFE0D210120CD
:10067000FFF706FE0E210120FFF702FE0F210120E9
:10068000FFF7FEFD4FF47040019001208DF80A0045
:1006900000208DF808000C208DF8090001A8FFF754
:1006A000A5FD28208DF8000001208DF8030003200F
:1006B0008DF8010002208DF802006846FFF7B6FEB3
:1006C0001FBD0000000C0140FFF78CFEFFF7B2FFDA
:1006D00000BFFEE7E4060008000000200004000060
:0406E00024060008E4
:04000005080000ED02
:00000001FF
